{
  "_format": "hh-sol-artifact-1",
  "contractName": "EACAggregatorProxy",
  "sourceName": "contracts/test/EACAggregatorProxy.sol",
  "abi": [
    {
      "inputs": [
        {
          "internalType": "address",
          "name": "_aggregator",
          "type": "address"
        },
        {
          "internalType": "address",
          "name": "_accessController",
          "type": "address"
        }
      ],
      "stateMutability": "nonpayable",
      "type": "constructor"
    },
    {
      "anonymous": false,
      "inputs": [
        {
          "indexed": true,
          "internalType": "int256",
          "name": "current",
          "type": "int256"
        },
        {
          "indexed": true,
          "internalType": "uint256",
          "name": "roundId",
          "type": "uint256"
        },
        {
          "indexed": false,
          "internalType": "uint256",
          "name": "updatedAt",
          "type": "uint256"
        }
      ],
      "name": "AnswerUpdated",
      "type": "event"
    },
    {
      "anonymous": false,
      "inputs": [
        {
          "indexed": true,
          "internalType": "uint256",
          "name": "roundId",
          "type": "uint256"
        },
        {
          "indexed": true,
          "internalType": "address",
          "name": "startedBy",
          "type": "address"
        },
        {
          "indexed": false,
          "internalType": "uint256",
          "name": "startedAt",
          "type": "uint256"
        }
      ],
      "name": "NewRound",
      "type": "event"
    },
    {
      "anonymous": false,
      "inputs": [
        {
          "indexed": true,
          "internalType": "address",
          "name": "from",
          "type": "address"
        },
        {
          "indexed": true,
          "internalType": "address",
          "name": "to",
          "type": "address"
        }
      ],
      "name": "OwnershipTransferRequested",
      "type": "event"
    },
    {
      "anonymous": false,
      "inputs": [
        {
          "indexed": true,
          "internalType": "address",
          "name": "from",
          "type": "address"
        },
        {
          "indexed": true,
          "internalType": "address",
          "name": "to",
          "type": "address"
        }
      ],
      "name": "OwnershipTransferred",
      "type": "event"
    },
    {
      "inputs": [],
      "name": "acceptOwnership",
      "outputs": [],
      "stateMutability": "nonpayable",
      "type": "function"
    },
    {
      "inputs": [],
      "name": "accessController",
      "outputs": [
        {
          "internalType": "contract AccessControllerInterface",
          "name": "",
          "type": "address"
        }
      ],
      "stateMutability": "view",
      "type": "function"
    },
    {
      "inputs": [],
      "name": "aggregator",
      "outputs": [
        {
          "internalType": "address",
          "name": "",
          "type": "address"
        }
      ],
      "stateMutability": "view",
      "type": "function"
    },
    {
      "inputs": [
        {
          "internalType": "address",
          "name": "_aggregator",
          "type": "address"
        }
      ],
      "name": "confirmAggregator",
      "outputs": [],
      "stateMutability": "nonpayable",
      "type": "function"
    },
    {
      "inputs": [],
      "name": "decimals",
      "outputs": [
        {
          "internalType": "uint8",
          "name": "",
          "type": "uint8"
        }
      ],
      "stateMutability": "view",
      "type": "function"
    },
    {
      "inputs": [],
      "name": "description",
      "outputs": [
        {
          "internalType": "string",
          "name": "",
          "type": "string"
        }
      ],
      "stateMutability": "view",
      "type": "function"
    },
    {
      "inputs": [
        {
          "internalType": "uint256",
          "name": "_roundId",
          "type": "uint256"
        }
      ],
      "name": "getAnswer",
      "outputs": [
        {
          "internalType": "int256",
          "name": "",
          "type": "int256"
        }
      ],
      "stateMutability": "view",
      "type": "function"
    },
    {
      "inputs": [
        {
          "internalType": "uint80",
          "name": "_roundId",
          "type": "uint80"
        }
      ],
      "name": "getRoundData",
      "outputs": [
        {
          "internalType": "uint80",
          "name": "roundId",
          "type": "uint80"
        },
        {
          "internalType": "int256",
          "name": "answer",
          "type": "int256"
        },
        {
          "internalType": "uint256",
          "name": "startedAt",
          "type": "uint256"
        },
        {
          "internalType": "uint256",
          "name": "updatedAt",
          "type": "uint256"
        },
        {
          "internalType": "uint80",
          "name": "answeredInRound",
          "type": "uint80"
        }
      ],
      "stateMutability": "view",
      "type": "function"
    },
    {
      "inputs": [
        {
          "internalType": "uint256",
          "name": "_roundId",
          "type": "uint256"
        }
      ],
      "name": "getTimestamp",
      "outputs": [
        {
          "internalType": "uint256",
          "name": "",
          "type": "uint256"
        }
      ],
      "stateMutability": "view",
      "type": "function"
    },
    {
      "inputs": [],
      "name": "latestAnswer",
      "outputs": [
        {
          "internalType": "int256",
          "name": "",
          "type": "int256"
        }
      ],
      "stateMutability": "view",
      "type": "function"
    },
    {
      "inputs": [],
      "name": "latestRound",
      "outputs": [
        {
          "internalType": "uint256",
          "name": "",
          "type": "uint256"
        }
      ],
      "stateMutability": "view",
      "type": "function"
    },
    {
      "inputs": [],
      "name": "latestRoundData",
      "outputs": [
        {
          "internalType": "uint80",
          "name": "roundId",
          "type": "uint80"
        },
        {
          "internalType": "int256",
          "name": "answer",
          "type": "int256"
        },
        {
          "internalType": "uint256",
          "name": "startedAt",
          "type": "uint256"
        },
        {
          "internalType": "uint256",
          "name": "updatedAt",
          "type": "uint256"
        },
        {
          "internalType": "uint80",
          "name": "answeredInRound",
          "type": "uint80"
        }
      ],
      "stateMutability": "view",
      "type": "function"
    },
    {
      "inputs": [],
      "name": "latestTimestamp",
      "outputs": [
        {
          "internalType": "uint256",
          "name": "",
          "type": "uint256"
        }
      ],
      "stateMutability": "view",
      "type": "function"
    },
    {
      "inputs": [],
      "name": "owner",
      "outputs": [
        {
          "internalType": "address",
          "name": "",
          "type": "address"
        }
      ],
      "stateMutability": "view",
      "type": "function"
    },
    {
      "inputs": [
        {
          "internalType": "uint16",
          "name": "",
          "type": "uint16"
        }
      ],
      "name": "phaseAggregators",
      "outputs": [
        {
          "internalType": "contract AggregatorV2V3Interface",
          "name": "",
          "type": "address"
        }
      ],
      "stateMutability": "view",
      "type": "function"
    },
    {
      "inputs": [],
      "name": "phaseId",
      "outputs": [
        {
          "internalType": "uint16",
          "name": "",
          "type": "uint16"
        }
      ],
      "stateMutability": "view",
      "type": "function"
    },
    {
      "inputs": [
        {
          "internalType": "address",
          "name": "_aggregator",
          "type": "address"
        }
      ],
      "name": "proposeAggregator",
      "outputs": [],
      "stateMutability": "nonpayable",
      "type": "function"
    },
    {
      "inputs": [],
      "name": "proposedAggregator",
      "outputs": [
        {
          "internalType": "contract AggregatorV2V3Interface",
          "name": "",
          "type": "address"
        }
      ],
      "stateMutability": "view",
      "type": "function"
    },
    {
      "inputs": [
        {
          "internalType": "uint80",
          "name": "_roundId",
          "type": "uint80"
        }
      ],
      "name": "proposedGetRoundData",
      "outputs": [
        {
          "internalType": "uint80",
          "name": "roundId",
          "type": "uint80"
        },
        {
          "internalType": "int256",
          "name": "answer",
          "type": "int256"
        },
        {
          "internalType": "uint256",
          "name": "startedAt",
          "type": "uint256"
        },
        {
          "internalType": "uint256",
          "name": "updatedAt",
          "type": "uint256"
        },
        {
          "internalType": "uint80",
          "name": "answeredInRound",
          "type": "uint80"
        }
      ],
      "stateMutability": "view",
      "type": "function"
    },
    {
      "inputs": [],
      "name": "proposedLatestRoundData",
      "outputs": [
        {
          "internalType": "uint80",
          "name": "roundId",
          "type": "uint80"
        },
        {
          "internalType": "int256",
          "name": "answer",
          "type": "int256"
        },
        {
          "internalType": "uint256",
          "name": "startedAt",
          "type": "uint256"
        },
        {
          "internalType": "uint256",
          "name": "updatedAt",
          "type": "uint256"
        },
        {
          "internalType": "uint80",
          "name": "answeredInRound",
          "type": "uint80"
        }
      ],
      "stateMutability": "view",
      "type": "function"
    },
    {
      "inputs": [
        {
          "internalType": "address",
          "name": "_accessController",
          "type": "address"
        }
      ],
      "name": "setController",
      "outputs": [],
      "stateMutability": "nonpayable",
      "type": "function"
    },
    {
      "inputs": [
        {
          "internalType": "address",
          "name": "_to",
          "type": "address"
        }
      ],
      "name": "transferOwnership",
      "outputs": [],
      "stateMutability": "nonpayable",
      "type": "function"
    },
    {
      "inputs": [],
      "name": "version",
      "outputs": [
        {
          "internalType": "uint256",
          "name": "",
          "type": "uint256"
        }
      ],
      "stateMutability": "view",
      "type": "function"
    }
  ],
  "bytecode": "0x60806040523480156200001157600080fd5b506040516200372f3803806200372f8339818101604052810190620000379190620002b1565b81336000806101000a81548173ffffffffffffffffffffffffffffffffffffffff021916908373ffffffffffffffffffffffffffffffffffffffff1602179055506200008981620000a360201b60201c565b506200009b81620001c560201b60201c565b50506200043f565b60006001600260000160009054906101000a900461ffff16620000c791906200034c565b905060405180604001604052808261ffff1681526020018373ffffffffffffffffffffffffffffffffffffffff16815250600260008201518160000160006101000a81548161ffff021916908361ffff16021790555060208201518160000160026101000a81548173ffffffffffffffffffffffffffffffffffffffff021916908373ffffffffffffffffffffffffffffffffffffffff16021790555090505081600460008361ffff1661ffff16815260200190815260200160002060006101000a81548173ffffffffffffffffffffffffffffffffffffffff021916908373ffffffffffffffffffffffffffffffffffffffff1602179055505050565b60008054906101000a900473ffffffffffffffffffffffffffffffffffffffff1673ffffffffffffffffffffffffffffffffffffffff163373ffffffffffffffffffffffffffffffffffffffff161462000256576040517f08c379a00000000000000000000000000000000000000000000000000000000081526004016200024d9062000319565b60405180910390fd5b80600560006101000a81548173ffffffffffffffffffffffffffffffffffffffff021916908373ffffffffffffffffffffffffffffffffffffffff16021790555050565b600081519050620002ab8162000425565b92915050565b60008060408385031215620002c557600080fd5b6000620002d5858286016200029a565b9250506020620002e8858286016200029a565b9150509250929050565b6000620003016016836200033b565b91506200030e82620003fc565b602082019050919050565b600060208201905081810360008301526200033481620002f2565b9050919050565b600082825260208201905092915050565b600062000359826200039f565b915062000366836200039f565b92508261ffff0382111562000380576200037f620003cd565b5b828201905092915050565b60006200039882620003ad565b9050919050565b600061ffff82169050919050565b600073ffffffffffffffffffffffffffffffffffffffff82169050919050565b7f4e487b7100000000000000000000000000000000000000000000000000000000600052601160045260246000fd5b7f4f6e6c792063616c6c61626c65206279206f776e657200000000000000000000600082015250565b62000430816200038b565b81146200043c57600080fd5b50565b6132e0806200044f6000396000f3fe608060405234801561001057600080fd5b506004361061014d5760003560e01c80638f6b4d91116100c3578063bc43cbaf1161007c578063bc43cbaf1461038c578063c1597304146103aa578063e8c4be30146103da578063f2fde38b146103f8578063f8a2abd314610414578063feaf968c146104305761014d565b80638f6b4d911461029e57806392eefe9b146102c05780639a6fc8f5146102dc578063a928c09614610310578063b5ab58dc1461032c578063b633620c1461035c5761014d565b80636001ac53116101155780636001ac53146101e8578063668a0f021461021c5780637284e4161461023a57806379ba5097146102585780638205bf6a146102625780638da5cb5b146102805761014d565b8063245a7bfc14610152578063313ce5671461017057806350d25bcd1461018e57806354fd4d50146101ac57806358303b10146101ca575b600080fd5b61015a610452565b6040516101679190612a3f565b60405180910390f35b61017861047f565b6040516101859190612c79565b60405180910390f35b610196610529565b6040516101a39190612ac2565b60405180910390f35b6101b4610663565b6040516101c19190612bba565b60405180910390f35b6101d261070d565b6040516101df9190612b9f565b60405180910390f35b61020260048036038101906101fd91906127cb565b610728565b604051610213959493929190612c26565b60405180910390f35b610224610909565b6040516102319190612bba565b60405180910390f35b610242610a43565b60405161024f9190612add565b60405180910390f35b610260610af2565b005b61026a610c87565b6040516102779190612bba565b60405180910390f35b610288610dc1565b6040516102959190612a3f565b60405180910390f35b6102a6610de5565b6040516102b7959493929190612c26565b60405180910390f35b6102da60048036038101906102d59190612694565b610fc3565b005b6102f660048036038101906102f191906127cb565b611095565b604051610307959493929190612c26565b60405180910390f35b61032a60048036038101906103259190612694565b6111e4565b005b61034660048036038101906103419190612779565b611333565b6040516103539190612ac2565b60405180910390f35b61037660048036038101906103719190612779565b611470565b6040516103839190612bba565b60405180910390f35b6103946115ad565b6040516103a19190612a8c565b60405180910390f35b6103c460048036038101906103bf9190612750565b6115d3565b6040516103d19190612aa7565b60405180910390f35b6103e2611606565b6040516103ef9190612aa7565b60405180910390f35b610412600480360381019061040d9190612694565b61162c565b005b61042e60048036038101906104299190612694565b611778565b005b61043861184a565b604051610449959493929190612c26565b60405180910390f35b6000600260000160029054906101000a900473ffffffffffffffffffffffffffffffffffffffff16905090565b6000600260000160029054906101000a900473ffffffffffffffffffffffffffffffffffffffff1673ffffffffffffffffffffffffffffffffffffffff1663313ce5676040518163ffffffff1660e01b815260040160206040518083038186803b1580156104ec57600080fd5b505afa158015610500573d6000803e3d6000fd5b505050506040513d601f19601f82011682018060405250810190610524919061286b565b905090565b600080600560009054906101000a900473ffffffffffffffffffffffffffffffffffffffff169050600073ffffffffffffffffffffffffffffffffffffffff168173ffffffffffffffffffffffffffffffffffffffff16148061061657508073ffffffffffffffffffffffffffffffffffffffff16636b14daf8336000366040518463ffffffff1660e01b81526004016105c593929190612a5a565b60206040518083038186803b1580156105dd57600080fd5b505afa1580156105f1573d6000803e3d6000fd5b505050506040513d601f19601f8201168201806040525081019061061591906126bd565b5b610655576040517f08c379a000000000000000000000000000000000000000000000000000000000815260040161064c90612b5f565b60405180910390fd5b61065d611996565b91505090565b6000600260000160029054906101000a900473ffffffffffffffffffffffffffffffffffffffff1673ffffffffffffffffffffffffffffffffffffffff166354fd4d506040518163ffffffff1660e01b815260040160206040518083038186803b1580156106d057600080fd5b505afa1580156106e4573d6000803e3d6000fd5b505050506040513d601f19601f8201168201806040525081019061070891906127a2565b905090565b6000600260000160009054906101000a900461ffff16905090565b600080600080600080600560009054906101000a900473ffffffffffffffffffffffffffffffffffffffff169050600073ffffffffffffffffffffffffffffffffffffffff168173ffffffffffffffffffffffffffffffffffffffff16148061081b57508073ffffffffffffffffffffffffffffffffffffffff16636b14daf8336000366040518463ffffffff1660e01b81526004016107ca93929190612a5a565b60206040518083038186803b1580156107e257600080fd5b505afa1580156107f6573d6000803e3d6000fd5b505050506040513d601f19601f8201168201806040525081019061081a91906126bd565b5b61085a576040517f08c379a000000000000000000000000000000000000000000000000000000000815260040161085190612b5f565b60405180910390fd5b600073ffffffffffffffffffffffffffffffffffffffff16600360009054906101000a900473ffffffffffffffffffffffffffffffffffffffff1673ffffffffffffffffffffffffffffffffffffffff1614156108ec576040517f08c379a00000000000000000000000000000000000000000000000000000000081526004016108e390612b3f565b60405180910390fd5b6108f587611a40565b955095509550955095505091939590929450565b600080600560009054906101000a900473ffffffffffffffffffffffffffffffffffffffff169050600073ffffffffffffffffffffffffffffffffffffffff168173ffffffffffffffffffffffffffffffffffffffff1614806109f657508073ffffffffffffffffffffffffffffffffffffffff16636b14daf8336000366040518463ffffffff1660e01b81526004016109a593929190612a5a565b60206040518083038186803b1580156109bd57600080fd5b505afa1580156109d1573d6000803e3d6000fd5b505050506040513d601f19601f820116820180604052508101906109f591906126bd565b5b610a35576040517f08c379a0000000000000000000000000000000000000000000000000000000008152600401610a2c90612b5f565b60405180910390fd5b610a3d611b97565b91505090565b6060600260000160029054906101000a900473ffffffffffffffffffffffffffffffffffffffff1673ffffffffffffffffffffffffffffffffffffffff16637284e4166040518163ffffffff1660e01b815260040160006040518083038186803b158015610ab057600080fd5b505afa158015610ac4573d6000803e3d6000fd5b505050506040513d6000823e3d601f19601f82011682018060405250810190610aed919061270f565b905090565b600160009054906101000a900473ffffffffffffffffffffffffffffffffffffffff1673ffffffffffffffffffffffffffffffffffffffff163373ffffffffffffffffffffffffffffffffffffffff1614610b82576040517f08c379a0000000000000000000000000000000000000000000000000000000008152600401610b7990612aff565b60405180910390fd5b60008060009054906101000a900473ffffffffffffffffffffffffffffffffffffffff169050336000806101000a81548173ffffffffffffffffffffffffffffffffffffffff021916908373ffffffffffffffffffffffffffffffffffffffff1602179055506000600160006101000a81548173ffffffffffffffffffffffffffffffffffffffff021916908373ffffffffffffffffffffffffffffffffffffffff1602179055503373ffffffffffffffffffffffffffffffffffffffff168173ffffffffffffffffffffffffffffffffffffffff167f8be0079c531659141344cd1fd0a4f28419497f9722a3daafe3b4186f6b6457e060405160405180910390a350565b600080600560009054906101000a900473ffffffffffffffffffffffffffffffffffffffff169050600073ffffffffffffffffffffffffffffffffffffffff168173ffffffffffffffffffffffffffffffffffffffff161480610d7457508073ffffffffffffffffffffffffffffffffffffffff16636b14daf8336000366040518463ffffffff1660e01b8152600401610d2393929190612a5a565b60206040518083038186803b158015610d3b57600080fd5b505afa158015610d4f573d6000803e3d6000fd5b505050506040513d601f19601f82011682018060405250810190610d7391906126bd565b5b610db3576040517f08c379a0000000000000000000000000000000000000000000000000000000008152600401610daa90612b5f565b60405180910390fd5b610dbb611cc0565b91505090565b60008054906101000a900473ffffffffffffffffffffffffffffffffffffffff1681565b600080600080600080600560009054906101000a900473ffffffffffffffffffffffffffffffffffffffff169050600073ffffffffffffffffffffffffffffffffffffffff168173ffffffffffffffffffffffffffffffffffffffff161480610ed857508073ffffffffffffffffffffffffffffffffffffffff16636b14daf8336000366040518463ffffffff1660e01b8152600401610e8793929190612a5a565b60206040518083038186803b158015610e9f57600080fd5b505afa158015610eb3573d6000803e3d6000fd5b505050506040513d601f19601f82011682018060405250810190610ed791906126bd565b5b610f17576040517f08c379a0000000000000000000000000000000000000000000000000000000008152600401610f0e90612b5f565b60405180910390fd5b600073ffffffffffffffffffffffffffffffffffffffff16600360009054906101000a900473ffffffffffffffffffffffffffffffffffffffff1673ffffffffffffffffffffffffffffffffffffffff161415610fa9576040517f08c379a0000000000000000000000000000000000000000000000000000000008152600401610fa090612b3f565b60405180910390fd5b610fb1611d6a565b95509550955095509550509091929394565b60008054906101000a900473ffffffffffffffffffffffffffffffffffffffff1673ffffffffffffffffffffffffffffffffffffffff163373ffffffffffffffffffffffffffffffffffffffff1614611051576040517f08c379a000000000000000000000000000000000000000000000000000000000815260040161104890612b1f565b60405180910390fd5b80600560006101000a81548173ffffffffffffffffffffffffffffffffffffffff021916908373ffffffffffffffffffffffffffffffffffffffff16021790555050565b600080600080600080600560009054906101000a900473ffffffffffffffffffffffffffffffffffffffff169050600073ffffffffffffffffffffffffffffffffffffffff168173ffffffffffffffffffffffffffffffffffffffff16148061118857508073ffffffffffffffffffffffffffffffffffffffff16636b14daf8336000366040518463ffffffff1660e01b815260040161113793929190612a5a565b60206040518083038186803b15801561114f57600080fd5b505afa158015611163573d6000803e3d6000fd5b505050506040513d601f19601f8201168201806040525081019061118791906126bd565b5b6111c7576040517f08c379a00000000000000000000000000000000000000000000000000000000081526004016111be90612b5f565b60405180910390fd5b6111d087611eb4565b955095509550955095505091939590929450565b60008054906101000a900473ffffffffffffffffffffffffffffffffffffffff1673ffffffffffffffffffffffffffffffffffffffff163373ffffffffffffffffffffffffffffffffffffffff1614611272576040517f08c379a000000000000000000000000000000000000000000000000000000000815260040161126990612b1f565b60405180910390fd5b600360009054906101000a900473ffffffffffffffffffffffffffffffffffffffff1673ffffffffffffffffffffffffffffffffffffffff168173ffffffffffffffffffffffffffffffffffffffff1614611302576040517f08c379a00000000000000000000000000000000000000000000000000000000081526004016112f990612b7f565b60405180910390fd5b600360006101000a81549073ffffffffffffffffffffffffffffffffffffffff021916905561133081611fd6565b50565b600080600560009054906101000a900473ffffffffffffffffffffffffffffffffffffffff169050600073ffffffffffffffffffffffffffffffffffffffff168173ffffffffffffffffffffffffffffffffffffffff16148061142057508073ffffffffffffffffffffffffffffffffffffffff16636b14daf8336000366040518463ffffffff1660e01b81526004016113cf93929190612a5a565b60206040518083038186803b1580156113e757600080fd5b505afa1580156113fb573d6000803e3d6000fd5b505050506040513d601f19601f8201168201806040525081019061141f91906126bd565b5b61145f576040517f08c379a000000000000000000000000000000000000000000000000000000000815260040161145690612b5f565b60405180910390fd5b611468836120f6565b915050919050565b600080600560009054906101000a900473ffffffffffffffffffffffffffffffffffffffff169050600073ffffffffffffffffffffffffffffffffffffffff168173ffffffffffffffffffffffffffffffffffffffff16148061155d57508073ffffffffffffffffffffffffffffffffffffffff16636b14daf8336000366040518463ffffffff1660e01b815260040161150c93929190612a5a565b60206040518083038186803b15801561152457600080fd5b505afa158015611538573d6000803e3d6000fd5b505050506040513d601f19601f8201168201806040525081019061155c91906126bd565b5b61159c576040517f08c379a000000000000000000000000000000000000000000000000000000000815260040161159390612b5f565b60405180910390fd5b6115a583612253565b915050919050565b600560009054906101000a900473ffffffffffffffffffffffffffffffffffffffff1681565b60046020528060005260406000206000915054906101000a900473ffffffffffffffffffffffffffffffffffffffff1681565b600360009054906101000a900473ffffffffffffffffffffffffffffffffffffffff1681565b60008054906101000a900473ffffffffffffffffffffffffffffffffffffffff1673ffffffffffffffffffffffffffffffffffffffff163373ffffffffffffffffffffffffffffffffffffffff16146116ba576040517f08c379a00000000000000000000000000000000000000000000000000000000081526004016116b190612b1f565b60405180910390fd5b80600160006101000a81548173ffffffffffffffffffffffffffffffffffffffff021916908373ffffffffffffffffffffffffffffffffffffffff1602179055508073ffffffffffffffffffffffffffffffffffffffff1660008054906101000a900473ffffffffffffffffffffffffffffffffffffffff1673ffffffffffffffffffffffffffffffffffffffff167fed8889f560326eb138920d842192f0eb3dd22b4f139c87a2c57538e05bae127860405160405180910390a350565b60008054906101000a900473ffffffffffffffffffffffffffffffffffffffff1673ffffffffffffffffffffffffffffffffffffffff163373ffffffffffffffffffffffffffffffffffffffff1614611806576040517f08c379a00000000000000000000000000000000000000000000000000000000081526004016117fd90612b1f565b60405180910390fd5b80600360006101000a81548173ffffffffffffffffffffffffffffffffffffffff021916908373ffffffffffffffffffffffffffffffffffffffff16021790555050565b600080600080600080600560009054906101000a900473ffffffffffffffffffffffffffffffffffffffff169050600073ffffffffffffffffffffffffffffffffffffffff168173ffffffffffffffffffffffffffffffffffffffff16148061193d57508073ffffffffffffffffffffffffffffffffffffffff16636b14daf8336000366040518463ffffffff1660e01b81526004016118ec93929190612a5a565b60206040518083038186803b15801561190457600080fd5b505afa158015611918573d6000803e3d6000fd5b505050506040513d601f19601f8201168201806040525081019061193c91906126bd565b5b61197c576040517f08c379a000000000000000000000000000000000000000000000000000000000815260040161197390612b5f565b60405180910390fd5b6119846123b0565b95509550955095509550509091929394565b6000600260000160029054906101000a900473ffffffffffffffffffffffffffffffffffffffff1673ffffffffffffffffffffffffffffffffffffffff166350d25bcd6040518163ffffffff1660e01b815260040160206040518083038186803b158015611a0357600080fd5b505afa158015611a17573d6000803e3d6000fd5b505050506040513d601f19601f82011682018060405250810190611a3b91906126e6565b905090565b60008060008060008073ffffffffffffffffffffffffffffffffffffffff16600360009054906101000a900473ffffffffffffffffffffffffffffffffffffffff1673ffffffffffffffffffffffffffffffffffffffff161415611ad9576040517f08c379a0000000000000000000000000000000000000000000000000000000008152600401611ad090612b3f565b60405180910390fd5b600360009054906101000a900473ffffffffffffffffffffffffffffffffffffffff1673ffffffffffffffffffffffffffffffffffffffff16639a6fc8f5876040518263ffffffff1660e01b8152600401611b349190612c0b565b60a06040518083038186803b158015611b4c57600080fd5b505afa158015611b60573d6000803e3d6000fd5b505050506040513d601f19601f82011682018060405250810190611b8491906127f4565b9450945094509450945091939590929450565b60008060026040518060400160405290816000820160009054906101000a900461ffff1661ffff1661ffff1681526020016000820160029054906101000a900473ffffffffffffffffffffffffffffffffffffffff1673ffffffffffffffffffffffffffffffffffffffff1673ffffffffffffffffffffffffffffffffffffffff16815250509050611cae8160000151826020015173ffffffffffffffffffffffffffffffffffffffff1663668a0f026040518163ffffffff1660e01b815260040160206040518083038186803b158015611c7157600080fd5b505afa158015611c85573d6000803e3d6000fd5b505050506040513d601f19601f82011682018060405250810190611ca991906127a2565b6124fb565b69ffffffffffffffffffff1691505090565b6000600260000160029054906101000a900473ffffffffffffffffffffffffffffffffffffffff1673ffffffffffffffffffffffffffffffffffffffff16638205bf6a6040518163ffffffff1660e01b815260040160206040518083038186803b158015611d2d57600080fd5b505afa158015611d41573d6000803e3d6000fd5b505050506040513d601f19601f82011682018060405250810190611d6591906127a2565b905090565b60008060008060008073ffffffffffffffffffffffffffffffffffffffff16600360009054906101000a900473ffffffffffffffffffffffffffffffffffffffff1673ffffffffffffffffffffffffffffffffffffffff161415611e03576040517f08c379a0000000000000000000000000000000000000000000000000000000008152600401611dfa90612b3f565b60405180910390fd5b600360009054906101000a900473ffffffffffffffffffffffffffffffffffffffff1673ffffffffffffffffffffffffffffffffffffffff1663feaf968c6040518163ffffffff1660e01b815260040160a06040518083038186803b158015611e6b57600080fd5b505afa158015611e7f573d6000803e3d6000fd5b505050506040513d601f19601f82011682018060405250810190611ea391906127f4565b945094509450945094509091929394565b6000806000806000806000611ed48869ffffffffffffffffffff1661251a565b915091506000806000806000600460008861ffff1661ffff16815260200190815260200160002060009054906101000a900473ffffffffffffffffffffffffffffffffffffffff1673ffffffffffffffffffffffffffffffffffffffff16639a6fc8f5876040518263ffffffff1660e01b8152600401611f549190612bf0565b60a06040518083038186803b158015611f6c57600080fd5b505afa158015611f80573d6000803e3d6000fd5b505050506040513d601f19601f82011682018060405250810190611fa491906127f4565b94509450945094509450611fbc85858585858c612538565b9b509b509b509b509b505050505050505091939590929450565b60006001600260000160009054906101000a900461ffff16611ff89190612d17565b905060405180604001604052808261ffff1681526020018373ffffffffffffffffffffffffffffffffffffffff16815250600260008201518160000160006101000a81548161ffff021916908361ffff16021790555060208201518160000160026101000a81548173ffffffffffffffffffffffffffffffffffffffff021916908373ffffffffffffffffffffffffffffffffffffffff16021790555090505081600460008361ffff1661ffff16815260200190815260200160002060006101000a81548173ffffffffffffffffffffffffffffffffffffffff021916908373ffffffffffffffffffffffffffffffffffffffff1602179055505050565b60006001601060406121089190612d4f565b60026121149190612df8565b61211e9190612f16565b82111561212e576000905061224e565b60008061213a8461251a565b915091506000600460008461ffff1661ffff16815260200190815260200160002060009054906101000a900473ffffffffffffffffffffffffffffffffffffffff169050600073ffffffffffffffffffffffffffffffffffffffff168173ffffffffffffffffffffffffffffffffffffffff1614156121bf576000935050505061224e565b8073ffffffffffffffffffffffffffffffffffffffff1663b5ab58dc836040518263ffffffff1660e01b81526004016121f89190612bd5565b60206040518083038186803b15801561221057600080fd5b505afa158015612224573d6000803e3d6000fd5b505050506040513d601f19601f8201168201806040525081019061224891906126e6565b93505050505b919050565b60006001601060406122659190612d4f565b60026122719190612df8565b61227b9190612f16565b82111561228b57600090506123ab565b6000806122978461251a565b915091506000600460008461ffff1661ffff16815260200190815260200160002060009054906101000a900473ffffffffffffffffffffffffffffffffffffffff169050600073ffffffffffffffffffffffffffffffffffffffff168173ffffffffffffffffffffffffffffffffffffffff16141561231c57600093505050506123ab565b8073ffffffffffffffffffffffffffffffffffffffff1663b633620c836040518263ffffffff1660e01b81526004016123559190612bd5565b60206040518083038186803b15801561236d57600080fd5b505afa158015612381573d6000803e3d6000fd5b505050506040513d601f19601f820116820180604052508101906123a591906127a2565b93505050505b919050565b60008060008060008060026040518060400160405290816000820160009054906101000a900461ffff1661ffff1661ffff1681526020016000820160029054906101000a900473ffffffffffffffffffffffffffffffffffffffff1673ffffffffffffffffffffffffffffffffffffffff1673ffffffffffffffffffffffffffffffffffffffff168152505090506000806000806000856020015173ffffffffffffffffffffffffffffffffffffffff1663feaf968c6040518163ffffffff1660e01b815260040160a06040518083038186803b15801561249057600080fd5b505afa1580156124a4573d6000803e3d6000fd5b505050506040513d601f19601f820116820180604052508101906124c891906127f4565b945094509450945094506124e485858585858b60000151612538565b9a509a509a509a509a505050505050509091929394565b60008167ffffffffffffffff1660408461ffff16901b17905092915050565b6000806000604084901c905060008490508181935093505050915091565b600080600080600061254a868c6124fb565b8a8a8a6125578a8c6124fb565b94509450945094509450965096509650965096915050565b600061258261257d84612cb9565b612c94565b90508281526020810184848401111561259a57600080fd5b6125a584828561305c565b509392505050565b6000813590506125bc81613209565b92915050565b6000815190506125d181613220565b92915050565b6000815190506125e681613237565b92915050565b600082601f8301126125fd57600080fd5b815161260d84826020860161256f565b91505092915050565b6000813590506126258161324e565b92915050565b60008135905061263a81613265565b92915050565b60008151905061264f81613265565b92915050565b60008135905061266481613293565b92915050565b60008151905061267981613293565b92915050565b60008151905061268e8161327c565b92915050565b6000602082840312156126a657600080fd5b60006126b4848285016125ad565b91505092915050565b6000602082840312156126cf57600080fd5b60006126dd848285016125c2565b91505092915050565b6000602082840312156126f857600080fd5b6000612706848285016125d7565b91505092915050565b60006020828403121561272157600080fd5b600082015167ffffffffffffffff81111561273b57600080fd5b612747848285016125ec565b91505092915050565b60006020828403121561276257600080fd5b600061277084828501612616565b91505092915050565b60006020828403121561278b57600080fd5b60006127998482850161262b565b91505092915050565b6000602082840312156127b457600080fd5b60006127c284828501612640565b91505092915050565b6000602082840312156127dd57600080fd5b60006127eb84828501612655565b91505092915050565b600080600080600060a0868803121561280c57600080fd5b600061281a8882890161266a565b955050602061282b888289016125d7565b945050604061283c88828901612640565b935050606061284d88828901612640565b925050608061285e8882890161266a565b9150509295509295909350565b60006020828403121561287d57600080fd5b600061288b8482850161267f565b91505092915050565b61289d81612f4a565b82525050565b60006128af8385612cf5565b93506128bc83858461304d565b6128c58361311e565b840190509392505050565b6128d981612fe1565b82525050565b6128e881613005565b82525050565b6128f781612f68565b82525050565b600061290882612cea565b6129128185612d06565b935061292281856020860161305c565b61292b8161311e565b840191505092915050565b6000612943601683612d06565b915061294e8261313c565b602082019050919050565b6000612966601683612d06565b915061297182613165565b602082019050919050565b6000612989601e83612d06565b91506129948261318e565b602082019050919050565b60006129ac600983612d06565b91506129b7826131b7565b602082019050919050565b60006129cf601b83612d06565b91506129da826131e0565b602082019050919050565b6129ee81612f72565b82525050565b6129fd81612fa0565b82525050565b612a0c81613029565b82525050565b612a1b8161303b565b82525050565b612a2a81612fcb565b82525050565b612a3981612fbe565b82525050565b6000602082019050612a546000830184612894565b92915050565b6000604082019050612a6f6000830186612894565b8181036020830152612a828184866128a3565b9050949350505050565b6000602082019050612aa160008301846128d0565b92915050565b6000602082019050612abc60008301846128df565b92915050565b6000602082019050612ad760008301846128ee565b92915050565b60006020820190508181036000830152612af781846128fd565b905092915050565b60006020820190508181036000830152612b1881612936565b9050919050565b60006020820190508181036000830152612b3881612959565b9050919050565b60006020820190508181036000830152612b588161297c565b9050919050565b60006020820190508181036000830152612b788161299f565b9050919050565b60006020820190508181036000830152612b98816129c2565b9050919050565b6000602082019050612bb460008301846129e5565b92915050565b6000602082019050612bcf60008301846129f4565b92915050565b6000602082019050612bea6000830184612a03565b92915050565b6000602082019050612c056000830184612a12565b92915050565b6000602082019050612c206000830184612a21565b92915050565b600060a082019050612c3b6000830188612a21565b612c4860208301876128ee565b612c5560408301866129f4565b612c6260608301856129f4565b612c6f6080830184612a21565b9695505050505050565b6000602082019050612c8e6000830184612a30565b92915050565b6000612c9e612caf565b9050612caa828261308f565b919050565b6000604051905090565b600067ffffffffffffffff821115612cd457612cd36130ef565b5b612cdd8261311e565b9050602081019050919050565b600081519050919050565b600082825260208201905092915050565b600082825260208201905092915050565b6000612d2282612f72565b9150612d2d83612f72565b92508261ffff03821115612d4457612d436130c0565b5b828201905092915050565b6000612d5a82612fa0565b9150612d6583612fa0565b9250827fffffffffffffffffffffffffffffffffffffffffffffffffffffffffffffffff03821115612d9a57612d996130c0565b5b828201905092915050565b6000808291508390505b6001851115612def57808604811115612dcb57612dca6130c0565b5b6001851615612dda5780820291505b8081029050612de88561312f565b9450612daf565b94509492505050565b6000612e0382612fa0565b9150612e0e83612fa0565b9250612e3b7fffffffffffffffffffffffffffffffffffffffffffffffffffffffffffffffff8484612e43565b905092915050565b600082612e535760019050612f0f565b81612e615760009050612f0f565b8160018114612e775760028114612e8157612eb0565b6001915050612f0f565b60ff841115612e9357612e926130c0565b5b8360020a915084821115612eaa57612ea96130c0565b5b50612f0f565b5060208310610133831016604e8410600b8410161715612ee55782820a905083811115612ee057612edf6130c0565b5b612f0f565b612ef28484846001612da5565b92509050818404811115612f0957612f086130c0565b5b81810290505b9392505050565b6000612f2182612fa0565b9150612f2c83612fa0565b925082821015612f3f57612f3e6130c0565b5b828203905092915050565b6000612f5582612f80565b9050919050565b60008115159050919050565b6000819050919050565b600061ffff82169050919050565b600073ffffffffffffffffffffffffffffffffffffffff82169050919050565b6000819050919050565b600067ffffffffffffffff82169050919050565b600060ff82169050919050565b600069ffffffffffffffffffff82169050919050565b6000612fec82612ff3565b9050919050565b6000612ffe82612f80565b9050919050565b600061301082613017565b9050919050565b600061302282612f80565b9050919050565b600061303482612faa565b9050919050565b600061304682612faa565b9050919050565b82818337600083830152505050565b60005b8381101561307a57808201518184015260208101905061305f565b83811115613089576000848401525b50505050565b6130988261311e565b810181811067ffffffffffffffff821117156130b7576130b66130ef565b5b80604052505050565b7f4e487b7100000000000000000000000000000000000000000000000000000000600052601160045260246000fd5b7f4e487b7100000000000000000000000000000000000000000000000000000000600052604160045260246000fd5b6000601f19601f8301169050919050565b60008160011c9050919050565b7f4d7573742062652070726f706f736564206f776e657200000000000000000000600082015250565b7f4f6e6c792063616c6c61626c65206279206f776e657200000000000000000000600082015250565b7f4e6f2070726f706f7365642061676772656761746f722070726573656e740000600082015250565b7f4e6f206163636573730000000000000000000000000000000000000000000000600082015250565b7f496e76616c69642070726f706f7365642061676772656761746f720000000000600082015250565b61321281612f4a565b811461321d57600080fd5b50565b61322981612f5c565b811461323457600080fd5b50565b61324081612f68565b811461324b57600080fd5b50565b61325781612f72565b811461326257600080fd5b50565b61326e81612fa0565b811461327957600080fd5b50565b61328581612fbe565b811461329057600080fd5b50565b61329c81612fcb565b81146132a757600080fd5b5056fea2646970667358221220402785d8b30e3694e0887885ba99a620d9869dd21d02154666650d7a35b8639964736f6c63430008040033",
  "linkReferences": {},
  "deployedLinkReferences": {}
}