{
  "_format": "hh-sol-artifact-1",
  "contractName": "Lottery",
  "sourceName": "contracts/Lottery.sol",
  "abi": [
    {
      "inputs": [
        {
          "internalType": "address",
          "name": "aggregator",
          "type": "address"
        },
        {
          "internalType": "uint80",
          "name": "_blockDiff",
          "type": "uint80"
        }
      ],
      "stateMutability": "nonpayable",
      "type": "constructor"
    },
    {
      "anonymous": false,
      "inputs": [
        {
          "indexed": true,
          "internalType": "address",
          "name": "previousOwner",
          "type": "address"
        },
        {
          "indexed": true,
          "internalType": "address",
          "name": "newOwner",
          "type": "address"
        }
      ],
      "name": "OwnershipTransferred",
      "type": "event"
    },
    {
      "anonymous": false,
      "inputs": [
        {
          "indexed": true,
          "internalType": "address",
          "name": "winner",
          "type": "address"
        },
        {
          "indexed": true,
          "internalType": "enum Lottery.Choice",
          "name": "choice",
          "type": "uint8"
        },
        {
          "indexed": false,
          "internalType": "uint256",
          "name": "bet",
          "type": "uint256"
        }
      ],
      "name": "Winner",
      "type": "event"
    },
    {
      "inputs": [
        {
          "internalType": "address",
          "name": "",
          "type": "address"
        }
      ],
      "name": "bets",
      "outputs": [
        {
          "internalType": "uint256",
          "name": "",
          "type": "uint256"
        }
      ],
      "stateMutability": "view",
      "type": "function"
    },
    {
      "inputs": [],
      "name": "biggestBetEth",
      "outputs": [
        {
          "internalType": "uint256",
          "name": "",
          "type": "uint256"
        }
      ],
      "stateMutability": "view",
      "type": "function"
    },
    {
      "inputs": [],
      "name": "biggestBetUsd",
      "outputs": [
        {
          "internalType": "uint256",
          "name": "",
          "type": "uint256"
        }
      ],
      "stateMutability": "view",
      "type": "function"
    },
    {
      "inputs": [],
      "name": "blockDiff",
      "outputs": [
        {
          "internalType": "uint80",
          "name": "",
          "type": "uint80"
        }
      ],
      "stateMutability": "view",
      "type": "function"
    },
    {
      "inputs": [],
      "name": "creationRound",
      "outputs": [
        {
          "internalType": "uint80",
          "name": "",
          "type": "uint80"
        }
      ],
      "stateMutability": "view",
      "type": "function"
    },
    {
      "inputs": [],
      "name": "owner",
      "outputs": [
        {
          "internalType": "address",
          "name": "",
          "type": "address"
        }
      ],
      "stateMutability": "view",
      "type": "function"
    },
    {
      "inputs": [
        {
          "internalType": "enum Lottery.Choice",
          "name": "choice",
          "type": "uint8"
        }
      ],
      "name": "participate",
      "outputs": [],
      "stateMutability": "payable",
      "type": "function"
    },
    {
      "inputs": [],
      "name": "price",
      "outputs": [
        {
          "internalType": "int256",
          "name": "",
          "type": "int256"
        }
      ],
      "stateMutability": "view",
      "type": "function"
    },
    {
      "inputs": [],
      "name": "priceFeed",
      "outputs": [
        {
          "internalType": "contract AggregatorV3Interface",
          "name": "",
          "type": "address"
        }
      ],
      "stateMutability": "view",
      "type": "function"
    },
    {
      "inputs": [],
      "name": "renounceOwnership",
      "outputs": [],
      "stateMutability": "nonpayable",
      "type": "function"
    },
    {
      "inputs": [],
      "name": "selectWinner",
      "outputs": [
        {
          "internalType": "bool",
          "name": "",
          "type": "bool"
        }
      ],
      "stateMutability": "nonpayable",
      "type": "function"
    },
    {
      "inputs": [
        {
          "internalType": "address",
          "name": "newOwner",
          "type": "address"
        }
      ],
      "name": "transferOwnership",
      "outputs": [],
      "stateMutability": "nonpayable",
      "type": "function"
    },
    {
      "inputs": [],
      "name": "winner",
      "outputs": [
        {
          "internalType": "address",
          "name": "",
          "type": "address"
        }
      ],
      "stateMutability": "view",
      "type": "function"
    },
    {
      "inputs": [],
      "name": "withdraw",
      "outputs": [],
      "stateMutability": "nonpayable",
      "type": "function"
    }
  ],
  "bytecode": "0x60e06040523480156200001157600080fd5b50604051620033fa380380620033fa8339818101604052810190620000379190620005b0565b620000576200004b6200021b60201b60201c565b6200022360201b60201c565b600180819055506200009c7febeae62dbddfa61084745752f7f8b43cebd1c279f529ba38f8e29d29ecfd8b5260056003620002e760201b6200132e179092919060201c565b620000da7f7d792757009c0b4d42bf5260d5525906d9b9d8c69d7c1750018546f9cb8dfc7b60056003620002e760201b6200132e179092919060201c565b81600260006101000a81548173ffffffffffffffffffffffffffffffffffffffff021916908373ffffffffffffffffffffffffffffffffffffffff160217905550600260009054906101000a900473ffffffffffffffffffffffffffffffffffffffff1673ffffffffffffffffffffffffffffffffffffffff1663feaf968c6040518163ffffffff1660e01b815260040160a06040518083038186803b1580156200018457600080fd5b505afa15801562000199573d6000803e3d6000fd5b505050506040513d601f19601f82011682018060405250810190620001bf9190620005f1565b9091509050508060c0908152508169ffffffffffffffffffff1660809069ffffffffffffffffffff1660b01b81525050508069ffffffffffffffffffff1660a08169ffffffffffffffffffff1660b01b8152505050506200082e565b600033905090565b60008060009054906101000a900473ffffffffffffffffffffffffffffffffffffffff169050816000806101000a81548173ffffffffffffffffffffffffffffffffffffffff021916908373ffffffffffffffffffffffffffffffffffffffff1602179055508173ffffffffffffffffffffffffffffffffffffffff168173ffffffffffffffffffffffffffffffffffffffff167f8be0079c531659141344cd1fd0a4f28419497f9722a3daafe3b4186f6b6457e060405160405180910390a35050565b6000836000016000848152602001908152602001600020905060008160000154146200034a576040517f08c379a00000000000000000000000000000000000000000000000000000000081526004016200034190620006e3565b60405180910390fd5b6001821162000390576040517f08c379a00000000000000000000000000000000000000000000000000000000081526004016200038790620006c1565b60405180910390fd5b818160000181905550600067ffffffffffffffff811115620003db577f4e487b7100000000000000000000000000000000000000000000000000000000600052604160045260246000fd5b6040519080825280602002602001820160405280156200040a5781602001602082028036833780820191505090505b5081600101908051906020019062000424929190620004e3565b50600067ffffffffffffffff81111562000467577f4e487b7100000000000000000000000000000000000000000000000000000000600052604160045260246000fd5b604051908082528060200260200182016040528015620004965781602001602082028036833780820191505090505b50816002019080519060200190620004b0929190620004e3565b50806002016000908060018154018082558091505060019003906000526020600020016000909190919091505550505050565b82805482825590600052602060002090810192821562000522579160200282015b828111156200052157825182559160200191906001019062000504565b5b50905062000531919062000535565b5090565b5b808211156200055057600081600090555060010162000536565b5090565b6000815190506200056581620007c6565b92915050565b6000815190506200057c81620007e0565b92915050565b6000815190506200059381620007fa565b92915050565b600081519050620005aa8162000814565b92915050565b60008060408385031215620005c457600080fd5b6000620005d48582860162000554565b9250506020620005e78582860162000599565b9150509250929050565b600080600080600060a086880312156200060a57600080fd5b60006200061a8882890162000599565b95505060206200062d888289016200056b565b9450506040620006408882890162000582565b9350506060620006538882890162000582565b9250506080620006668882890162000599565b9150509295509295909350565b600062000682601b8362000705565b91506200068f8262000774565b602082019050919050565b6000620006a960148362000705565b9150620006b6826200079d565b602082019050919050565b60006020820190508181036000830152620006dc8162000673565b9050919050565b60006020820190508181036000830152620006fe816200069a565b9050919050565b600082825260208201905092915050565b6000620007238262000734565b9050919050565b6000819050919050565b600073ffffffffffffffffffffffffffffffffffffffff82169050919050565b6000819050919050565b600069ffffffffffffffffffff82169050919050565b7f4b206d7573742062652067726561746572207468616e206f6e652e0000000000600082015250565b7f5472656520616c7265616479206578697374732e000000000000000000000000600082015250565b620007d18162000716565b8114620007dd57600080fd5b50565b620007eb816200072a565b8114620007f757600080fd5b50565b620008058162000754565b81146200081157600080fd5b50565b6200081f816200075e565b81146200082b57600080fd5b50565b60805160b01c60a05160b01c60c051612b50620008aa60003960008181610ad201528181610b2701526111e80152600081816103bf0152818161092a01528181610a0f01528181610e4901526110ab0152600081816103e00152818161094b01528181610a3001528181610e6a01526110d50152612b506000f3fe6080604052600436106100dd5760003560e01c8063741bef1a1161007f578063a035b1fe11610059578063a035b1fe1461026b578063dfbf53ae14610296578063f2fde38b146102c1578063f85326b2146102ea576100dd565b8063741bef1a146101d857806389a78f1a146102035780638da5cb5b14610240576100dd565b806348b9f88f116100bb57806348b9f88f146101405780634f09eca01461016b5780635426621b14610196578063715018a6146101c1576100dd565b80631981d521146100e257806333a99e04146100fe5780633ccfd60b14610129575b600080fd5b6100fc60048036038101906100f79190612022565b610315565b005b34801561010a57600080fd5b50610113610802565b6040516101209190612382565b60405180910390f35b34801561013557600080fd5b5061013e610d51565b005b34801561014c57600080fd5b506101556110a9565b604051610162919061256e565b60405180910390f35b34801561017757600080fd5b506101806110cd565b60405161018d9190612553565b60405180910390f35b3480156101a257600080fd5b506101ab6110d3565b6040516101b8919061256e565b60405180910390f35b3480156101cd57600080fd5b506101d66110f7565b005b3480156101e457600080fd5b506101ed61117f565b6040516101fa919061239d565b60405180910390f35b34801561020f57600080fd5b5061022a60048036038101906102259190611ff9565b6111a5565b6040516102379190612553565b60405180910390f35b34801561024c57600080fd5b506102556111bd565b6040516102629190612367565b60405180910390f35b34801561027757600080fd5b506102806111e6565b60405161028d91906123b8565b60405180910390f35b3480156102a257600080fd5b506102ab61120a565b6040516102b89190612367565b60405180910390f35b3480156102cd57600080fd5b506102e860048036038101906102e39190611ff9565b611230565b005b3480156102f657600080fd5b506102ff611328565b60405161030c9190612553565b60405180910390f35b6000600260009054906101000a900473ffffffffffffffffffffffffffffffffffffffff1673ffffffffffffffffffffffffffffffffffffffff1663feaf968c6040518163ffffffff1660e01b815260040160a06040518083038186803b15801561037f57600080fd5b505afa158015610393573d6000803e3d6000fd5b505050506040513d601f19601f820116820180604052508101906103b7919061204b565b5050505090507f00000000000000000000000000000000000000000000000000000000000000007f000000000000000000000000000000000000000000000000000000000000000061040991906125fb565b69ffffffffffffffffffff168169ffffffffffffffffffff161115610463576040517f08c379a000000000000000000000000000000000000000000000000000000000815260040161045a90612453565b60405180910390fd5b600260015414156104a9576040517f08c379a00000000000000000000000000000000000000000000000000000000081526004016104a090612533565b60405180910390fd5b60026001819055506000600760003373ffffffffffffffffffffffffffffffffffffffff1673ffffffffffffffffffffffffffffffffffffffff1681526020019081526020016000205414610533576040517f08c379a000000000000000000000000000000000000000000000000000000000815260040161052a90612513565b60405180910390fd5b6001341015610577576040517f08c379a000000000000000000000000000000000000000000000000000000000815260040161056e90612413565b60405180910390fd5b600060018111156105b1577f4e487b7100000000000000000000000000000000000000000000000000000000600052602160045260246000fd5b8260018111156105ea577f4e487b7100000000000000000000000000000000000000000000000000000000600052602160045260246000fd5b1480156105f8575060055434115b1561060557346005819055505b60018081111561063e577f4e487b7100000000000000000000000000000000000000000000000000000000600052602160045260246000fd5b826001811115610677577f4e487b7100000000000000000000000000000000000000000000000000000000600052602160045260246000fd5b148015610685575060065434115b1561069257346006819055505b34600760003373ffffffffffffffffffffffffffffffffffffffff1673ffffffffffffffffffffffffffffffffffffffff1681526020019081526020016000208190555060006001811115610710577f4e487b7100000000000000000000000000000000000000000000000000000000600052602160045260246000fd5b826001811115610749577f4e487b7100000000000000000000000000000000000000000000000000000000600052602160045260246000fd5b14156107a5576107a07febeae62dbddfa61084745752f7f8b43cebd1c279f529ba38f8e29d29ecfd8b52343373ffffffffffffffffffffffffffffffffffffffff1660001b600361151c909392919063ffffffff16565b6107f7565b6107f67f7d792757009c0b4d42bf5260d5525906d9b9d8c69d7c1750018546f9cb8dfc7b343373ffffffffffffffffffffffffffffffffffffffff1660001b600361151c909392919063ffffffff16565b5b600180819055505050565b600061080c611ae0565b73ffffffffffffffffffffffffffffffffffffffff1661082a6111bd565b73ffffffffffffffffffffffffffffffffffffffff1614610880576040517f08c379a000000000000000000000000000000000000000000000000000000000815260040161087790612493565b60405180910390fd5b6000600260009054906101000a900473ffffffffffffffffffffffffffffffffffffffff1673ffffffffffffffffffffffffffffffffffffffff1663feaf968c6040518163ffffffff1660e01b815260040160a06040518083038186803b1580156108ea57600080fd5b505afa1580156108fe573d6000803e3d6000fd5b505050506040513d601f19601f82011682018060405250810190610922919061204b565b5050505090507f00000000000000000000000000000000000000000000000000000000000000007f000000000000000000000000000000000000000000000000000000000000000061097491906125fb565b69ffffffffffffffffffff168169ffffffffffffffffffff16116109cd576040517f08c379a00000000000000000000000000000000000000000000000000000000081526004016109c4906124b3565b60405180910390fd5b6000600260009054906101000a900473ffffffffffffffffffffffffffffffffffffffff1673ffffffffffffffffffffffffffffffffffffffff16639a6fc8f57f00000000000000000000000000000000000000000000000000000000000000007f0000000000000000000000000000000000000000000000000000000000000000610a5991906125fb565b6040518263ffffffff1660e01b8152600401610a75919061256e565b60a06040518083038186803b158015610a8d57600080fd5b505afa158015610aa1573d6000803e3d6000fd5b505050506040513d601f19601f82011682018060405250810190610ac5919061204b565b50505091505060008060007f0000000000000000000000000000000000000000000000000000000000000000841315610b255760055492507febeae62dbddfa61084745752f7f8b43cebd1c279f529ba38f8e29d29ecfd8b529150600090505b7f0000000000000000000000000000000000000000000000000000000000000000841215610b7a5760065492507f7d792757009c0b4d42bf5260d5525906d9b9d8c69d7c1750018546f9cb8dfc7b9150600190505b6000831415610b90576000955050505050610d4d565b60004442600654600554610ba491906125a5565b604051602001610bb69392919061232a565b6040516020818303038152906040528051906020012060001c90506000610bdd8286611ae8565b9050610bf584826003611b9c9092919063ffffffff16565b60001c600460006101000a81548173ffffffffffffffffffffffffffffffffffffffff021916908373ffffffffffffffffffffffffffffffffffffffff160217905550826001811115610c71577f4e487b7100000000000000000000000000000000000000000000000000000000600052602160045260246000fd5b600460009054906101000a900473ffffffffffffffffffffffffffffffffffffffff1673ffffffffffffffffffffffffffffffffffffffff167ff81695af4909e3581b736cb72b4976fcf5046b35ae7e8f1b3ba4b3e42007557560076000600460009054906101000a900473ffffffffffffffffffffffffffffffffffffffff1673ffffffffffffffffffffffffffffffffffffffff1673ffffffffffffffffffffffffffffffffffffffff16815260200190815260200160002054604051610d3a9190612553565b60405180910390a3600197505050505050505b5090565b60026001541415610d97576040517f08c379a0000000000000000000000000000000000000000000000000000000008152600401610d8e90612533565b60405180910390fd5b60026001819055506000600260009054906101000a900473ffffffffffffffffffffffffffffffffffffffff1673ffffffffffffffffffffffffffffffffffffffff1663feaf968c6040518163ffffffff1660e01b815260040160a06040518083038186803b158015610e0957600080fd5b505afa158015610e1d573d6000803e3d6000fd5b505050506040513d601f19601f82011682018060405250810190610e41919061204b565b5050505090507f00000000000000000000000000000000000000000000000000000000000000007f0000000000000000000000000000000000000000000000000000000000000000610e9391906125fb565b69ffffffffffffffffffff168169ffffffffffffffffffff1611610eec576040517f08c379a0000000000000000000000000000000000000000000000000000000008152600401610ee3906124b3565b60405180910390fd5b6000600760003373ffffffffffffffffffffffffffffffffffffffff1673ffffffffffffffffffffffffffffffffffffffff1681526020019081526020016000205411610f6e576040517f08c379a0000000000000000000000000000000000000000000000000000000008152600401610f6590612473565b60405180910390fd5b60003373ffffffffffffffffffffffffffffffffffffffff16600760003373ffffffffffffffffffffffffffffffffffffffff1673ffffffffffffffffffffffffffffffffffffffff16815260200190815260200160002054604051610fd3906122fa565b60006040518083038185875af1925050503d8060008114611010576040519150601f19603f3d011682016040523d82523d6000602084013e611015565b606091505b5050905080611059576040517f08c379a0000000000000000000000000000000000000000000000000000000008152600401611050906124f3565b60405180910390fd5b6000600760003373ffffffffffffffffffffffffffffffffffffffff1673ffffffffffffffffffffffffffffffffffffffff16815260200190815260200160002081905550505060018081905550565b7f000000000000000000000000000000000000000000000000000000000000000081565b60065481565b7f000000000000000000000000000000000000000000000000000000000000000081565b6110ff611ae0565b73ffffffffffffffffffffffffffffffffffffffff1661111d6111bd565b73ffffffffffffffffffffffffffffffffffffffff1614611173576040517f08c379a000000000000000000000000000000000000000000000000000000000815260040161116a90612493565b60405180910390fd5b61117d6000611d16565b565b600260009054906101000a900473ffffffffffffffffffffffffffffffffffffffff1681565b60076020528060005260406000206000915090505481565b60008060009054906101000a900473ffffffffffffffffffffffffffffffffffffffff16905090565b7f000000000000000000000000000000000000000000000000000000000000000081565b600460009054906101000a900473ffffffffffffffffffffffffffffffffffffffff1681565b611238611ae0565b73ffffffffffffffffffffffffffffffffffffffff166112566111bd565b73ffffffffffffffffffffffffffffffffffffffff16146112ac576040517f08c379a00000000000000000000000000000000000000000000000000000000081526004016112a390612493565b60405180910390fd5b600073ffffffffffffffffffffffffffffffffffffffff168173ffffffffffffffffffffffffffffffffffffffff16141561131c576040517f08c379a0000000000000000000000000000000000000000000000000000000008152600401611313906123f3565b60405180910390fd5b61132581611d16565b50565b60055481565b60008360000160008481526020019081526020016000209050600081600001541461138e576040517f08c379a0000000000000000000000000000000000000000000000000000000008152600401611385906124d3565b60405180910390fd5b600182116113d1576040517f08c379a00000000000000000000000000000000000000000000000000000000081526004016113c8906123d3565b60405180910390fd5b818160000181905550600067ffffffffffffffff81111561141b577f4e487b7100000000000000000000000000000000000000000000000000000000600052604160045260246000fd5b6040519080825280602002602001820160405280156114495781602001602082028036833780820191505090505b50816001019080519060200190611461929190611f26565b50600067ffffffffffffffff8111156114a3577f4e487b7100000000000000000000000000000000000000000000000000000000600052604160045260246000fd5b6040519080825280602002602001820160405280156114d15781602001602082028036833780820191505090505b508160020190805190602001906114e9929190611f26565b50806002016000908060018154018082558091505060019003906000526020600020016000909190919091505550505050565b600084600001600085815260200190815260200160002090506000816003016000848152602001908152602001600020549050600081141561181c5760008414611817576000826001018054905014156116dc578160020180549050905081600201849080600181540180825580915050600190039060005260206000200160009091909190915055600181141580156115d15750600082600001546001836115c591906126c6565b6115cf919061280a565b145b156116d75760008260000154826115e8919061263b565b90506000836004016000838152602001908152602001600020549050600060018461161391906125a5565b905084600201856002018481548110611655577f4e487b7100000000000000000000000000000000000000000000000000000000600052603260045260246000fd5b9060005260206000200154908060018154018082558091505060019003906000526020600020016000909190919091505584600401600084815260200190815260200160002060009055808560030160008481526020019081526020016000208190555081856004016000838152602001908152602001600020819055505050505b6117d4565b81600101600183600101805490506116f491906126c6565b8154811061172b577f4e487b7100000000000000000000000000000000000000000000000000000000600052603260045260246000fd5b9060005260206000200154905081600101805480611772577f4e487b7100000000000000000000000000000000000000000000000000000000600052603160045260246000fd5b60019003818190600052602060002001600090559055838260020182815481106117c5577f4e487b7100000000000000000000000000000000000000000000000000000000600052603260045260246000fd5b90600052602060002001819055505b80826003016000858152602001908152602001600020819055508282600401600083815260200190815260200160002081905550611816868683600188611dda565b5b611ad8565b600084141561192d576000826002018281548110611863577f4e487b7100000000000000000000000000000000000000000000000000000000600052603260045260246000fd5b9060005260206000200154905060008360020183815481106118ae577f4e487b7100000000000000000000000000000000000000000000000000000000600052603260045260246000fd5b9060005260206000200181905550826001018290806001815401808255809150506001900390600052602060002001600090919091909150558260030160008581526020019081526020016000206000905582600401600083815260200190815260200160002060009055611927878784600085611dda565b50611ad7565b816002018181548110611969577f4e487b7100000000000000000000000000000000000000000000000000000000600052603260045260246000fd5b90600052602060002001548414611ad6576000848360020183815481106119b9577f4e487b7100000000000000000000000000000000000000000000000000000000600052603260045260246000fd5b906000526020600020015411159050600081611a265785846002018481548110611a0c577f4e487b7100000000000000000000000000000000000000000000000000000000600052603260045260246000fd5b9060005260206000200154611a2191906126c6565b611a79565b836002018381548110611a62577f4e487b7100000000000000000000000000000000000000000000000000000000600052603260045260246000fd5b906000526020600020015486611a7891906126c6565b5b905085846002018481548110611ab8577f4e487b7100000000000000000000000000000000000000000000000000000000600052603260045260246000fd5b9060005260206000200181905550611ad38888858585611dda565b50505b5b5b505050505050565b600033905090565b6000808211611b2c576040517f08c379a0000000000000000000000000000000000000000000000000000000008152600401611b2390612433565b60405180910390fd5b60008283611b3a91906127d9565b905060008490505b600115611b8657818110611b5557611b86565b80604051602001611b66919061230f565b6040516020818303038152906040528051906020012060001c9050611b42565b8381611b92919061280a565b9250505092915050565b600080846000016000858152602001908152602001600020905060008082600201600081548110611bf6577f4e487b7100000000000000000000000000000000000000000000000000000000600052603260045260246000fd5b906000526020600020015485611c0c919061280a565b90505b82600201805490506001838560000154611c29919061266c565b611c3391906125a5565b1015611cf4576000600190505b83600001548111611cee57600081848660000154611c5e919061266c565b611c6891906125a5565b90506000856002018281548110611ca8577f4e487b7100000000000000000000000000000000000000000000000000000000600052603260045260246000fd5b90600052602060002001549050808410611ccf578084611cc891906126c6565b9350611cd9565b8194505050611cee565b50508080611ce690612786565b915050611c40565b50611c0f565b8260040160008381526020019081526020016000205493505050509392505050565b60008060009054906101000a900473ffffffffffffffffffffffffffffffffffffffff169050816000806101000a81548173ffffffffffffffffffffffffffffffffffffffff021916908373ffffffffffffffffffffffffffffffffffffffff1602179055508173ffffffffffffffffffffffffffffffffffffffff168173ffffffffffffffffffffffffffffffffffffffff167f8be0079c531659141344cd1fd0a4f28419497f9722a3daafe3b4186f6b6457e060405160405180910390a35050565b6000856000016000868152602001908152602001600020905060008490505b60008114611f1d578160000154600182611e1391906126c6565b611e1d919061263b565b905083611e7b5782826002018281548110611e61577f4e487b7100000000000000000000000000000000000000000000000000000000600052603260045260246000fd5b9060005260206000200154611e7691906126c6565b611ece565b82826002018281548110611eb8577f4e487b7100000000000000000000000000000000000000000000000000000000600052603260045260246000fd5b9060005260206000200154611ecd91906125a5565b5b826002018281548110611f0a577f4e487b7100000000000000000000000000000000000000000000000000000000600052603260045260246000fd5b9060005260206000200181905550611df9565b50505050505050565b828054828255906000526020600020908101928215611f62579160200282015b82811115611f61578251825591602001919060010190611f46565b5b509050611f6f9190611f73565b5090565b5b80821115611f8c576000816000905550600101611f74565b5090565b600081359050611f9f81612aae565b92915050565b600081359050611fb481612ac5565b92915050565b600081519050611fc981612ad5565b92915050565b600081519050611fde81612aec565b92915050565b600081519050611ff381612b03565b92915050565b60006020828403121561200b57600080fd5b600061201984828501611f90565b91505092915050565b60006020828403121561203457600080fd5b600061204284828501611fa5565b91505092915050565b600080600080600060a0868803121561206357600080fd5b600061207188828901611fe4565b955050602061208288828901611fba565b945050604061209388828901611fcf565b93505060606120a488828901611fcf565b92505060806120b588828901611fe4565b9150509295509295909350565b6120cb816126fa565b82525050565b6120da8161270c565b82525050565b6120e981612762565b82525050565b6120f881612718565b82525050565b600061210b601b83612594565b915061211682612899565b602082019050919050565b600061212e602683612594565b9150612139826128c2565b604082019050919050565b6000612151601c83612594565b915061215c82612911565b602082019050919050565b6000612174601583612594565b915061217f8261293a565b602082019050919050565b6000612197601483612594565b91506121a282612963565b602082019050919050565b60006121ba601083612594565b91506121c58261298c565b602082019050919050565b60006121dd602083612594565b91506121e8826129b5565b602082019050919050565b6000612200601583612594565b915061220b826129de565b602082019050919050565b6000612223600083612589565b915061222e82612a07565b600082019050919050565b6000612246601483612594565b915061225182612a0a565b602082019050919050565b6000612269600c83612594565b915061227482612a33565b602082019050919050565b600061228c601383612594565b915061229782612a5c565b602082019050919050565b60006122af601f83612594565b91506122ba82612a85565b602082019050919050565b6122ce81612742565b82525050565b6122e56122e082612742565b6127cf565b82525050565b6122f48161274c565b82525050565b600061230582612216565b9150819050919050565b600061231b82846122d4565b60208201915081905092915050565b600061233682866122d4565b60208201915061234682856122d4565b60208201915061235682846122d4565b602082019150819050949350505050565b600060208201905061237c60008301846120c2565b92915050565b600060208201905061239760008301846120d1565b92915050565b60006020820190506123b260008301846120e0565b92915050565b60006020820190506123cd60008301846120ef565b92915050565b600060208201905081810360008301526123ec816120fe565b9050919050565b6000602082019050818103600083015261240c81612121565b9050919050565b6000602082019050818103600083015261242c81612144565b9050919050565b6000602082019050818103600083015261244c81612167565b9050919050565b6000602082019050818103600083015261246c8161218a565b9050919050565b6000602082019050818103600083015261248c816121ad565b9050919050565b600060208201905081810360008301526124ac816121d0565b9050919050565b600060208201905081810360008301526124cc816121f3565b9050919050565b600060208201905081810360008301526124ec81612239565b9050919050565b6000602082019050818103600083015261250c8161225c565b9050919050565b6000602082019050818103600083015261252c8161227f565b9050919050565b6000602082019050818103600083015261254c816122a2565b9050919050565b600060208201905061256860008301846122c5565b92915050565b600060208201905061258360008301846122eb565b92915050565b600081905092915050565b600082825260208201905092915050565b60006125b082612742565b91506125bb83612742565b9250827fffffffffffffffffffffffffffffffffffffffffffffffffffffffffffffffff038211156125f0576125ef61283b565b5b828201905092915050565b60006126068261274c565b91506126118361274c565b92508269ffffffffffffffffffff038211156126305761262f61283b565b5b828201905092915050565b600061264682612742565b915061265183612742565b9250826126615761266061286a565b5b828204905092915050565b600061267782612742565b915061268283612742565b9250817fffffffffffffffffffffffffffffffffffffffffffffffffffffffffffffffff04831182151516156126bb576126ba61283b565b5b828202905092915050565b60006126d182612742565b91506126dc83612742565b9250828210156126ef576126ee61283b565b5b828203905092915050565b600061270582612722565b9050919050565b60008115159050919050565b6000819050919050565b600073ffffffffffffffffffffffffffffffffffffffff82169050919050565b6000819050919050565b600069ffffffffffffffffffff82169050919050565b600061276d82612774565b9050919050565b600061277f82612722565b9050919050565b600061279182612742565b91507fffffffffffffffffffffffffffffffffffffffffffffffffffffffffffffffff8214156127c4576127c361283b565b5b600182019050919050565b6000819050919050565b60006127e482612718565b91506127ef83612718565b9250826127ff576127fe61286a565b5b828207905092915050565b600061281582612742565b915061282083612742565b9250826128305761282f61286a565b5b828206905092915050565b7f4e487b7100000000000000000000000000000000000000000000000000000000600052601160045260246000fd5b7f4e487b7100000000000000000000000000000000000000000000000000000000600052601260045260246000fd5b7f4b206d7573742062652067726561746572207468616e206f6e652e0000000000600082015250565b7f4f776e61626c653a206e6577206f776e657220697320746865207a65726f206160008201527f6464726573730000000000000000000000000000000000000000000000000000602082015250565b7f6d696e696d756d20312077656920746f20706172746963697061746500000000600082015250565b7f556e69666f726d52616e642f6d696e2d626f756e640000000000000000000000600082015250565b7f70617274696369706174696f6e20636c6f736564000000000000000000000000600082015250565b7f6e6f2070617274696369706174696f6e00000000000000000000000000000000600082015250565b7f4f776e61626c653a2063616c6c6572206973206e6f7420746865206f776e6572600082015250565b7f70617274696369706174696f6e206f70656e6e65640000000000000000000000600082015250565b50565b7f5472656520616c7265616479206578697374732e000000000000000000000000600082015250565b7f726571756972652073656e740000000000000000000000000000000000000000600082015250565b7f616c7265616479207061727469636970616e7400000000000000000000000000600082015250565b7f5265656e7472616e637947756172643a207265656e7472616e742063616c6c00600082015250565b612ab7816126fa565b8114612ac257600080fd5b50565b60028110612ad257600080fd5b50565b612ade81612718565b8114612ae957600080fd5b50565b612af581612742565b8114612b0057600080fd5b50565b612b0c8161274c565b8114612b1757600080fd5b5056fea2646970667358221220f590d6fba6e78219739186acad4d7c98d7c206f8fdcfb43bddcfa4c247ffa38664736f6c63430008040033",
  "linkReferences": {},
  "deployedLinkReferences": {}
}